:060003008B088A09890A3E
:10000900120139E4FDFF120125E4F50EAB08AA0936
:10001900A90A850E82758300120087FF6007120105
:1000290048050E80E7E4FD7F01120125E4F50EABDA
:100039000BAA0CA90D850E82758300120087FF603B
:0800490007120148050E80E7D3
:01005100228C
:100052007F0F7E001200BE7F381201551200BA7F58
:10006200391201557F081201557F011201557F0691
:100072001201551200BA7F0C1201557F141201555C
:050082007F0C02015596
:0F01390012010F7F011201557F057E000200BEEB
:0A00B400C2A58990D2A67F057E0048
:1000BE00E4FDFCC3ED9FEC9E5015E4FBFA0BBB0078
:0F00CE00010AEB64784A70F50DBD00010C80E467
:0100DD002200
:10012500ED70048F0F8005EF2440F50FE50F248057
:04013500FF0201556F
:10010F00C2A4D2A5D2A67F017E001200BEAF90C2BC
:05011F00A6EF20E7EF50
:0101240022B8
:0D014800A90712010FD2A41200B4C2A62212
:0D015500A90712010FC2A41200B4C2A62215
:1000F80054656D70657261747572653A003131349A
:070108002E353134204300C5
:1000DE00E4F580120052750BFF750C01750D057B52
:0A00EE00FF7A0079F812000380FE8B
:0300000002016298
:0C016200787FE4F6D8FD75810F0200DE06
:10008700BB010CE58229F582E5833AF583E022502E
:1000970006E92582F8E622BBFE06E92582F8E22278
:0D00A700E58229F582E5833AF583E4932292
:00000001FF
